:100000000A128A11FC2F00308A000408840A820731
:1000100000344D344934433452344F3443344F3434
:100020004E34543452344F344C344C3445345234BE
:0A00300000345034493443340034E6
:100ED400F2007208831203138700061086100615A9
:100EE4002130F1007630F000F00B762FF10B762FE5
:100EF40000008312031306110800F2007208831223
:100F0400031387000614861006152130F10076308D
:100F1400F000F00B8B2FF10B8B2F000083120313C7
:100F24000611080038300A128A116A270A128A1137
:100F340006300A128A116A270A128A110C300A1220
:100F44008A116A270A128A1101300A128A116A2741
:100F54000A128A110800F701F801C32F77087307F2
:100F640084000A128A1103200A128A110A128A11B1
:100F74007F270A128A110130F7070318F80A003094
:100F8400F8077408F500F60176087802031DCC2FE3
:100F940075087702031CCF2FD02FB02F08008316BB
:100FA4000313860187010A128A1194270A128A11EF
:100FB40087300A128A116A270A128A111130F30043
:100FC4000330F4000A128A11AD270A128A11C130C3
:100FD4000A128A116A270A128A110130F3000F30AB
:100FE400F4000A128A11AD270A128A11DA2F0A12A2
:0C0FF4008A11002883010A128A11D12FF3
:02400E00FA1F97
:00000001FF
