:060000000A128A11EE2F26
:100F1C003F3406345B344F3466346D347D340734DF
:100F2C007F346F347E088A007F0882000A128A118F
:100F3C0098270A128A118000840A04087D06031976
:100F4C000034FF0A0319FE0A9C2F2C308400203039
:100F5C00F0000A30F10083130008F200040AF300D9
:100F6C007008840072088000040AF0007308840082
:100F7C00F10BB12F8316031386018312AA01AB0167
:100F8C002A08203E84008313000886000D30F200EE
:100F9C00AF30F100B630F000F00BD22FF10BD22FA6
:100FAC00F20BD22F0000013083120313AA0703188F
:100FBC00AB0A0030AB0700302B020A3003192A02AF
:100FCC00031CE92FEA2FC62FC32F0A128A110028FF
:100FDC0083133630FD000730FE008E30FF002C30BE
:100FEC0084000A128A119C270A128A1183010A12A0
:040FFC008A11AB2F7C
:02400E00FA1F97
:00000001FF
