:100000000A128A11FC2F00308A000408840A820731
:1000100000344B3445345934503441344434203462
:0C002000563441344C345534453400341F
:100D4000F200720883120313880007148710071536
:100D50002130F1007630F000F00BAC2EF10BAC2E10
:100D600000008312031307110800F20072088312B7
:100D7000031388000710871007152130F100763023
:100D8000F000F00BC12EF10BC12E000083120313F3
:100D90000711080038300A128A11B5260A128A1182
:100DA00006300A128A11B5260A128A110C300A126C
:100DB0008A11B5260A128A1101300A128A11B52643
:100DC0000A128A110800F701F801F92E7708730753
:100DD00084000A128A1103200A128A110A128A1147
:100DE000A0260A128A110130F7070318F80A00300A
:100DF000F8077408F500F60176087802031D022F43
:100E000075087702031C052F062FE62E08008316AF
:100E1000031387018801F03086000A128A11CA265E
:100E20000A128A1180300A128A11B5260A128A1112
:100E30000130F3000C30F4000A128A11E3260A1282
:100E40008A11C0300A128A11B5260A128A110A12B2
:100E50008A1130270A128A11272F0A128A110028B4
:100E600083120313061486100611061E382F392F1D
:100E7000452F31300A128A11A0260A128A118312D4
:100E80000313061A442F452F3F2F861E482F492F44
:100E9000552F34300A128A11A0260A128A118312A1
:100EA0000313861A542F552F4F2F061F582F592FD3
:100EB000652F37300A128A11A0260A128A1183126E
:100EC0000313061B642F652F5F2F861F682F692F62
:100ED000752F2A300A128A11A0260A128A1183124B
:100EE0000313861B742F752F6F2F0610861406119F
:100EF000061E7B2F7C2F882F32300A128A11A026E3
:100F00000A128A1183120313061A872F882F822F41
:100F1000861E8B2F8C2F982F35300A128A11A0260F
:100F20000A128A1183120313861A972F982F922F71
:100F3000061F9B2F9C2FA82F38300A128A11A0263B
:100F40000A128A1183120313061BA72FA82FA22FA0
:100F5000861FAB2FAC2FB82F30300A128A11A02673
:100F60000A128A1183120313861BB72FB82FB22FD0
:100F7000061086100615061EBE2FBF2FCB2F33304E
:100F80000A128A11A0260A128A1183120313061A62
:100F9000CA2FCB2FC52F861ECE2FCF2FDB2F36305B
:100FA0000A128A11A0260A128A1183120313861AC2
:100FB000DA2FDB2FD52F061FDE2FDF2FEB2F393057
:100FC0000A128A11A0260A128A1183120313061B21
:100FD000EA2FEB2FE52F861FEE2FEF2FFB2F23306D
:100FE0000A128A11A0260A128A1183120313861B81
:100FF000FA2FFB2FF52F080083010A128A11072F01
:02400E00FA1F97
:00000001FF
