:060000000A128A110E280D
:10000800FE00030EF2000A08F3007F08F4000A124B
:100018008A116D290A128A111128F501F601F701D2
:10002800F80183120313A001A101A201A301A401F5
:10003800A501A601A701A801A90183010A128A1135
:1000480025288B170B17831603130C1786018701B6
:100058000A128A11BE210A128A1180300A128A11E4
:10006800EE210A128A11013083120313AD00093000
:10007800AE000A128A1196210A128A11413083129F
:1000880003139F008E30831603139F0083120313FC
:100098001F0804389F008B300A128A11EE210A12B9
:1000A8008A110A3083120313AA000030AB007808C3
:1000B800AD007708AC000A128A11EF200A128A11E3
:1000C800831203132B08F6002A08F5000A30AA0049
:1000D8000030AB007808AD007708AC000A128A112E
:1000E80033210A128A11831203132B08A9002A0844
:1000F800A8000A30AA000030AB007608AD007508E9
:10010800AC000A128A1133210A128A1183120313CE
:100118002B08A7002A08A6000A30AA000030AB0066
:100128007608AD007508AC000A128A11EF200A1291
:100138008A11831203132B08A5002A08A4000A3089
:10014800AA000030AB002508AD002408AC000A1254
:100158008A1133210A128A11831203132B08A30070
:100168002A08A2000A30AA000030AB002508AD001A
:100178002408AC000A128A11EF200A128A1183128D
:1001880003132B08A1002A08A0002008303E0A12F9
:100198008A11D7210A128A11831203132208303ECA
:1001A8000A128A11D7210A128A1183120313260808
:1001B800303E0A128A11D7210A128A1183120313B8
:1001C8002808303E0A128A11D7210A128A114A28B1
:1001D8000A128A110E2883120313AF01B0012A08EC
:1001E8002B040319F828F9282E290130AE00052917
:1001F80001300310AA0DAB0DFF3E031DFD28013091
:10020800AE07AB1F08290929FC2801300310AF0DE0
:10021800B00DFF3E031D0A292B082D02031D1629C8
:100228002A082C02031C19291A2921292A08AC0298
:100238002B08031CAD03AD022F1401300310AB0CC7
:10024800AA0CFF3E031D22290130AE02031D2D29F1
:100258002E2909293008AB002F08AA0008008312AC
:1002680003132A082B0403193A293B29682901306A
:10027800AE00472901300310AA0DAB0DFF3E031D48
:100288003F290130AE07AB1F4A294B293E292B08CD
:100298002D02031D51292A082C02031C5429552913
:1002A8005B292A08AC022B08031CAD03AD02013000
:1002B8000310AB0CAA0CFF3E031D5C290130AE02F3
:1002C800031D672968294B292D08AB002C08AA00B3
:1002D8000800831203130C1F722973298D291E0825
:1002E800F000F1017008F100F0017008F7007108E2
:1002F800F800831603131E087707F0007808031820
:10030800780AF1007008F7007108F80083120313E7
:100318000C137408FF0073088A00720E8300FE0E27
:100328007E0E090083120313B101B201B02931080E
:100338002D0784000A128A1105220A128A110A124C
:100348008A11D7210A128A11013083120313B107C7
:100358000318B20A0030B2072E08AF00B001300807
:100368003202031DB9292F083102031CBC29BD29FB
:100378009B29080038300A128A11EE210A128A11C4
:1003880006300A128A11EE210A128A110C300A125A
:100398008A11EE210A128A1101300A128A11EE21FD
:1003A8000A128A11080083120313AC002C08870074
:1003B800061486100615213083120313AB0075301E
:1003C800AA00AA0BE529AB0BE529EA298312031336
:1003D8000611080083120313AC002C0887000610CE
:1003E80086100615213083120313AB007530AA005E
:1003F800AA0BFC29AB0BFC29012A83120313061153
:10040800080002308A000408840A82070034503445
:100418004F3454342034563461346C347534653474
:0204280000349E
:02400E00BA3FB7
:00000001FF
