:100000000A128A11FC2F00308A000408840A820731
:1000100000344C344334443420344434693473342D
:1000200070346C3461347934003434342D344234D7
:0600300069347434003451
:100E640028300A128A119A270A128A1106300A12A5
:100E74008A119A270A128A110C300A128A119A27A7
:100E84000A128A1101300A128A119A270A128A1147
:100E94000800F601F701612F7608730784000A122F
:100EA4008A1103200A128A110A128A11CB270A1204
:100EB4008A110130F6070318F70A0030F70775089E
:100EC4007702031D672F74087602031C6A2F6B2FA9
:100ED4004E2F08008316031386010A128A11322743
:100EE4000A128A1186300A128A119A270A128A1162
:100EF4000D30F3000530F4000030F5000A128A11B9
:100F04004B270A128A11C5300A128A119A270A122B
:100F14008A110130F3000B30F4000030F5000A129E
:100F24008A114B270A128A11742F0A128A11002877
:100F3400F2007208F039831203138600061086103B
:100F440006152130F1007630F000F00BA72FF10BDD
:100F5400A72F00008312031306117208F000033058
:100F64000310F00DFF3E031DB22F0310700DF03976
:100F740086000610861006152130F1007630F00048
:100F8400F00BC22FF10BC22F0000831203130611C2
:100F94000800F2007208F039831203138600061465
:100FA400861006152130F1007630F000F00BD82FB2
:100FB400F10BD82F00008312031306117208F000FE
:100FC40003300310F00DFF3E031DE32F0310700DDB
:100FD400F03986000614861006152130F1007630AB
:100FE400F000F00BF32FF10BF32F00008312031327
:0C0FF4000611080083010A128A116C2FFC
:02400E00FA1F97
:00000001FF
