:060000000A128A11EE2F26
:100D5A003F3406345B344F3466346D347D340734A3
:100D6A007F346F347E088A007F0882000A128A1153
:100D7A00B7260A128A118000840A04087D0603191C
:100D8A000034FF0A0319FE0ABB2E70087104031906
:100D9A00CF2ED02EFD2E0130F400DC2E01300310B0
:100DAA00F00DF10DFF3E031DD42E0130F407F11FA3
:100DBA00DF2EE02ED32E71087302031DE62E700873
:100DCA007202031CE92EEA2EF02E7008F202710854
:100DDA00031CF303F30201300310F10CF00CFF3E85
:100DEA00031DF12E0130F402031DFC2EFD2EE02E10
:100DFA007308F1007208F0000800F401F5017008A8
:100E0A0071040319092F0A2F3F2F0130F600162FFC
:100E1A0001300310F00DF10DFF3E031D0E2F0130BE
:100E2A00F607F11F192F1A2F0D2F01300310F40D99
:100E3A00F50DFF3E031D1B2F71087302031D272F9B
:100E4A0070087202031C2A2F2B2F322F7008F2020D
:100E5A007108031CF303F302741401300310F10C3C
:100E6A00F00CFF3E031D332F0130F602031D3E2F07
:100E7A003F2F1A2F7508F1007408F0000800363069
:100E8A0084002030F7000A30F80083130008F900C4
:100E9A00040AFA007708840079088000040AF70037
:100EAA007A088400F80B4A2F8316031386018701F8
:100EBA00033083120313B2000030B300ED30B400E4
:100ECA001130B5009B2F0A30F0000030F1003508D0
:100EDA00F3003408F2000A128A11CA260A128A1189
:100EEA00831203133208F70077072A3E840070083A
:100EFA0083138000840A710880000A30F0000030F1
:100F0A00F1003508F3003408F2000A128A110227A8
:100F1A000A128A11710883120313B5007008B4000B
:100F2A000130B2020030031CB303B30234083504A3
:100F3A00031DA02FA12F682FFE3087002A08203E0C
:100F4A0084008313000886004130F800EE30F70071
:100F5A00F70BAD2FF80BAD2F0000FD3083120313F2
:100F6A0087002C08203E8400831300088600413045
:100F7A00F800EE30F700F70BC02FF80BC02F000077
:100F8A00FB308312031387002E08203E840083134C
:100F9A00000886004130F800EE30F700F70BD32F37
:100FAA00F80BD32F0000F7308312031387003008A1
:100FBA00203E84008313000886004130F800EE309A
:100FCA00F700F70BE62FF80BE62F00000A128A113A
:100FDA00002883134030FD000630FE00AD30FF00CC
:100FEA00363084000A128A11BB260A128A1183013A
:060FFA000A128A11442FC7
:02400E00FA1F97
:00000001FF
